:020000040800F2
:1000000034130008950F0008291000083510000867
:10001000411000084D1000085910000800000000B1
:100020006510000871100008000000007D10000835
:100030008910000895100008A1100008AD100008F4
:10004000B9100008C5100008D1100008DD10000824
:10005000E9100008F5100008011100080D11000852
:100060001911000825110008311100083D11000880
:100070004911000855110008611100086D110008B0
:100080007911000885110008911100089D110008E0
:10009000A9110008B5110008C1110008CD11000810
:1000A000D9110008E5110008F1110008FD11000840
:1000B0000912000815120008211200082D1200086C
:1000C0003912000845120008511200085D1200089C
:1000D0006912000875120008811200088D120008CC
:1000E00099120008A5120008B1120008BD120008FC
:1000F000C9120008D5120008E1120008ED1200082C
:10010000F912000805130008111300081D13000858
:0401100029130008A7
:1001140080B485B000AF0346FB800023FB8112E06E
:100124000023BB8104E0BB899BB201339BB2BB813A
:10013400BB899BB240F66B429342F4D9FB899BB2D4
:1001440001339BB2FB81FB899BB2FA889A42E7D8C0
:1001540000BF00BF1437BD4680BC704780B485B073
:1001640000AF0346FB800023FB8110E00023BB812A
:1001740004E0BB899BB201339BB2BB81BB899BB2B8
:10018400022BF6D9FB899BB201339BB2FB81FB891D
:100194009BB2FA889A42E9D800BF00BF1437BD4623
:1001A40080BC704780B483B000AF0346FB710B463C
:1001B400BB7113467B71FB79052B57D801A252F80A
:1001C40023F000BFE1010008F90100081102000852
:1001D400290200084102000859020008264B1B6846
:1001E4007979BA79520001FA02F21146224A0B4394
:1001F40013603CE0214B1B687979BA79520001FA0B
:1002040002F211461D4A0B43136030E01C4B1B687D
:100214007979BA79520001FA02F21146184A0B436D
:10022400136024E0174B1B687979BA79520001FAFC
:1002340002F21146134A0B43136018E0124B1B6879
:100244007979BA79520001FA02F211460E4A0B4347
:1002540013600CE00D4B1B687979BA79520001FAEE
:1002640002F21146094A0B43136000E000BF00BFCD
:100274000C37BD4680BC70470000024000040240B9
:1002840000080240000C024000100240001C024022
:1002940080B483B000AF0346FB710B46BB711346B9
:1002A4007B71FB79052B51D801A252F823F000BFD2
:1002B400CD020008E3020008F90200080F03000859
:1002C400250300083B030008234B5B687979BA795E
:1002D40001FA02F21146204A0B43536037E01F4BE8
:1002E4005B687979BA7901FA02F211461B4A0B4329
:1002F40053602CE01A4B5B687979BA7901FA02F2FF
:100304001146174A0B43536021E0164B5B68797919
:10031400BA7901FA02F21146124A0B43536016E00D
:10032400114B5B687979BA7901FA02F211460E4AE7
:100334000B4353600BE00D4B5B687979BA7901FA92
:1003440002F21146094A0B43536000E000BF00BFAC
:100354000C37BD4680BC70470000024000040240D8
:1003640000080240000C024000100240001C024041
:1003740080B483B000AF0346FB710B46BB711346D8
:100384007B71FB79052B57D801A252F823F000BFEB
:10039400AD030008C5030008DD030008F5030008E9
:1003A4000D04000825040008264B9B687979BA7966
:1003B400520001FA02F21146224A0B4393603CE0D8
:1003C400214B9B687979BA79520001FA02F21146FD
:1003D4001D4A0B43936030E01C4B9B687979BA79D2
:1003E400520001FA02F21146184A0B43936024E0CA
:1003F400174B9B687979BA79520001FA02F21146D7
:10040400134A0B43936018E0124B9B687979BA79CD
:10041400520001FA02F211460E4A0B4393600CE0BB
:100424000D4B9B687979BA79520001FA02F21146B0
:10043400094A0B43936000E000BF00BF0C37BD4680
:1004440080BC7047000002400004024000080240E3
:10045400000C024000100240001C024080B483B033
:1004640000AF0346FB710B46BB7113467B71FB79EE
:10047400052B57D801A252F823F000BF99040008B5
:10048400B1040008C9040008E1040008F9040008E4
:1004940011050008264BDB687979BA79520001FA14
:1004A40002F21146224A0B43D3603CE0214BDB6845
:1004B4007979BA79520001FA02F211461D4A0B43C6
:1004C400D36030E01C4BDB687979BA79520001FAC9
:1004D40002F21146184A0B43D36024E0174BDB6841
:1004E4007979BA79520001FA02F21146134A0B43A0
:1004F400D36018E0124BDB687979BA79520001FABB
:1005040002F211460E4A0B43D3600CE00D4BDB683C
:100514007979BA79520001FA02F21146094A0B4379
:10052400D36000E000BF00BF0C37BD4680BC7047FD
:10053400000002400004024000080240000C024097
:1005440000100240001C024080B485B000AF034696
:100554000A46FB711346BB710023FB73FB79052B21
:100564004AD801A252F823F085050008990500082D
:10057400AD050008C1050008D5050008E905000817
:10058400214B1A69BB7922FA03F3DBB203F00103AE
:10059400FB7332E01D4B1A69BB7922FA03F3DBB219
:1005A40003F00103FB7328E0194B1A69BB7922FAA3
:1005B40003F3DBB203F00103FB731EE0154B1A696E
:1005C400BB7922FA03F3DBB203F00103FB7314E0FB
:1005D400114B1A69BB7922FA03F3DBB203F001036E
:1005E400FB730AE00D4B1A69BB7922FA03F3DBB201
:1005F40003F00103FB7300E000BFFB7B18461437D4
:10060400BD4680BC704700BF0000024000040240A9
:1006140000080240000C024000100240001C02408E
:1006240080B483B000AF0346FB710B46BB71134625
:100634007B717B79012B4FD1FB79052B00F2A480D0
:1006440001A252F823F000BF6506000879060008ED
:100654008D060008A1060008B5060008C9060008B2
:100664004D4B5A69BB79012101FA03F34A491343FB
:100674004B618CE0494B5A69BB79012101FA03F3C0
:10068400464913434B6182E0454B5A69BB790121CA
:1006940001FA03F3424913434B6178E0414B5A6931
:1006A400BB79012101FA03F33E4913434B616EE028
:1006B4003D4B5A69BB79012101FA03F33A491343CB
:1006C4004B6164E0394B5A69BB79012101FA03F3A8
:1006D400364913434B615AE07B79002B57D1FB79A0
:1006E400052B53D801A252F823F000BF09070008D4
:1006F4001F070008350700084B07000861070008BA
:1007040077070008244B5A69BB79012101FA03F3E6
:10071400DB43214913404B6139E0204B5A69BB79D3
:10072400012101FA03F3DB431C4913404B612EE022
:100734001B4B5A69BB79012101FA03F3DB431849C6
:1007440013404B6123E0174B5A69BB79012101FA2D
:1007540003F3DB43134913404B6118E0124B5A690E
:10076400BB79012101FA03F3DB430F4913404B61C9
:100774000DE00E4B5A69BB79012101FA03F3DB4307
:100784000A4913404B6102E000BF00E000BF00BF14
:100794000C37BD4680BC7047000002400004024094
:1007A40000080240000C024000100240001C0240FD
:1007B40080B483B000AF0346FB710B46BB71134694
:1007C4007B717B79012B35D1FB79052B6ED801A286
:1007D40052F823F0F1070008FD0700080908000893
:1007E40015080008210800082D080008BB7901221B
:1007F4009A40324B9A615CE0BB7901229A40304BBB
:100804009A6156E0BB7901229A402E4B9A6150E0DE
:10081400BB7901229A402C4B9A614AE0BB790122B0
:100824009A402A4B9A6144E0BB7901229A40284BB2
:100834009A613EE07B79002B3BD1BB791033BB71CD
:10084400FB79052B34D801A252F823F0690800087B
:1008540075080008810800088D0800089908000838
:10086400A5080008BB7901229A40144B9A6120E044
:10087400BB7901229A40124B9A611AE0BB7901229A
:100884009A40104B9A6114E0BB7901229A400E4BB6
:100894009A610EE0BB7901229A400C4B9A6108E000
:1008A400BB7901229A400A4B9A6102E000BF00E042
:1008B40000BF00BF0C37BD4680BC7047000002403B
:1008C4000004024000080240000C024000100240F4
:1008D400001C024080B483B000AF03460A46FB719B
:1008E4001346BB71FB79052B00F29A8001A252F8E2
:1008F40023F000BF110900083F0900086D09000832
:100904009B090008C9090008F7090008474BDA6980
:10091400BB79012101FA03F344491343CB61434BEF
:10092400DB69424A43F48033D36100BF3F4BDB6948
:1009340003F48033002BF9D073E03D4BDA69BB79C3
:10094400012101FA03F33A491343CB61384BDB69C4
:10095400374A43F48033D36100BF354BDB6903F47A
:100964008033002BF9D05CE0324BDA69BB7901218A
:1009740001FA03F32F491343CB612E4BDB692D4A54
:1009840043F48033D36100BF2A4BDB6903F4803323
:10099400002BF9D045E0284BDA69BB79012101FA33
:1009A40003F325491343CB61234BDB69224A43F408
:1009B4008033D36100BF204BDB6903F48033002B09
:1009C400F9D02EE01D4BDA69BB79012101FA03F35A
:1009D4001A491343CB61194BDB69184A43F480333A
:1009E400D36100BF154BDB6903F48033002BF9D0CE
:1009F40017E0134BDA69BB79012101FA03F31049BB
:100A04001343CB610E4BDB690D4A43F48033D3614E
:100A140000BF0B4BDB6903F48033002BF9D000E0FB
:100A240000BF00BF0C37BD4680BC704700000240C9
:100A34000004024000080240000C02400010024082
:100A4400001C024080B483B000AF0346FB710B4628
:100A5400BB7113467B71BB79072B5BD8FB79052BE4
:100A640000F2BE8001A252F823F000BF890A0008F8
:100A7400A10A0008B90A0008D10A0008E90A000816
:100A8400010B00085A4B1B6A7979BA79920001FA72
:100A940002F21146564A0B431362A4E0554B1B6AFB
:100AA4007979BA79920001FA02F21146514A0B435C
:100AB400136298E0504B1B6A7979BA79920001FA73
:100AC40002F211464C4A0B4313628CE04B4B1B6AF7
:100AD4007979BA79920001FA02F21146474A0B4336
:100AE400136280E0464B1B6A7979BA79920001FA65
:100AF40002F21146424A0B43136274E0414B1B6AF3
:100B04007979BA79920001FA02F211463D4A0B430F
:100B1400136268E0FB79052B64D801A252F823F034
:100B24003D0B0008590B0008750B0008910B0008D9
:100B3400AD0B0008C90B00082D4B5B6A7979BA79B3
:100B440002F00702920001FA02F21146284A0B430E
:100B5400536248E0274B5B6A7979BA7902F007025D
:100B6400920001FA02F21146224A0B4353623AE020
:100B7400214B5B6A7979BA7902F00702920001FA93
:100B840002F211461C4A0B4353622CE01B4B5B6A76
:100B94007979BA7902F00702920001FA02F2114659
:100BA400164A0B4353621EE0154B5B6A7979BA7996
:100BB40002F00702920001FA02F21146104A0B43B6
:100BC400536210E00F4B5B6A7979BA7902F007023D
:100BD400920001FA02F211460A4A0B43536202E000
:100BE40000BF00E000BF00BF0C37BD4680BC7047AB
:100BF400000002400004024000080240000C0240D1
:100C040000100240001C024080B500AF00F0F6F86E
:100C14000021002000F03AF8012201210020FFF712
:100C2400C1FA002201210020FFF732FB0122012139
:100C34000020FFF79DFB002201210020FFF70EFC9E
:100C4400012202210020FFF7ADFA00220221002038
:100C5400FFF71EFB012202210020FFF789FB00227F
:100C640002210020FFF7FAFB012201210020FFF7F7
:100C74009FFD6420FFF74CFA002201210020FFF7BA
:100C840097FD6420FFF744FAEEE7000080B483B0D8
:100C940000AF03460A46FB711346BB71FB79032B75
:100CA40032D801A252F823F0BD0C0008D10C000880
:100CB400E50C0008F90C0008164B1A68BB790121F1
:100CC40001FA03F3134913430B601EE0124B1A6835
:100CD400BB79012101FA03F30F4913430B6014E0BC
:100CE4000E4B1A68BB79012101FA03F30B49134334
:100CF4000B600AE00A4B1A68BB79012101FA03F37D
:100D0400074913430B6000E000BF00BF0C37BD462A
:100D140080BC7047303802403438024040380240CA
:100D24004438024080B483B000AF03460A46FB71E6
:100D34001346BB71FB79032B36D801A252F823F07A
:100D4400550D00086B0D0008810D0008970D000873
:100D5400184B1A68BB79012101FA03F3DB431549E7
:100D640013400B6021E0144B1A68BB79012101FA8E
:100D740003F3DB43104913400B6016E00F4B1A6872
:100D8400BB79012101FA03F3DB430C4913400B60E7
:100D94000BE00B4B1A68BB79012101FA03F3DB4327
:100DA400074913400B6000E000BF00BF0C37BD468D
:100DB40080BC70473038024034380240403802402A
:100DC4004438024080B400AF044B1B68034A43F428
:100DD4000023136000BFBD4680BC7047003802404A
:100DE40080B400AF044B1B68034A23F40023136050
:100DF40000BFBD4680BC70470038024080B400AFDD
:100E04000A4B1B68094A43F001031360074B9B68B4
:100E1400064A23F001039360044B9B68034A23F0C2
:100E24000203936000BFBD4680BC70470038024097
:100E340080B483B000AF0346FB710B46BB7113460D
:100E44007B71FB79022B53D0022B00F39680002B8D
:100E540002D0012B39D090E0BB79002B02D0012BBA
:100E640019D031E0474B1B68464A43F48033136082
:100E7400444B1B68434A23F480231360424B1B6892
:100E8400414A43F0010313603F4B1B683E4A23F081
:100E94000203136018E03B4B1B683A4A43F4803367
:100EA4001360384B1B68374A43F480231360364B76
:100EB4001B68354A43F001031360334B1B68324A05
:100EC40023F00203136000BF57E02E4B1B682D4A2A
:100ED40043F0010313602C4B1B682B4A23F00103DE
:100EE4001360294B1B68284A23F00203136044E073
:100EF4007B79002B02D0012B1FD03DE0214B1B68D6
:100F0400204A43F4803313601E4B1B681D4A43F090
:100F1400807313601D4B1B681C4A43F480031360E9
:100F2400194B1B68184A23F001031360164B1B6806
:100F3400154A43F0020313601EE0124B1B68114A6A
:100F440043F0010313600F4B1B680E4A43F0807398
:100F540013600E4B1B680D4A23F4800313600A4B85
:100F64001B68094A23F001031360074B1B68064AF8
:100F740043F00203136000BF00BF00BF0C37BD463F
:100F840080BC7047003802400838024004380240F0
:100F940080B586B000AF00237B6000237B61002313
:100FA4003B611B4A1B4BD31A9B107B601A4B7B6122
:100FB400184B3B610023FB600AE07A69131D7B61D7
:100FC4003B69191D396112681A60FB680133FB60C3
:100FD400FA687B689A42F0D3104A114BD31A9B10DB
:100FE4007B600F4B3B610023BB6007E03B691A1D2C
:100FF4003A6100221A60BB680133BB60BA687B683F
:101004009A42F3D3FFF700FE00BF1837BD4680BDF8
:101014000000002000000020381300080000002019
:101024000000002080B400AF00BFBD4680BC704704
:1010340080B400AF00BFBD4680BC704780B400AF31
:1010440000BFBD4680BC704780B400AF00BFBD4642
:1010540080BC704780B400AF00BFBD4680BC704701
:1010640080B400AF00BFBD4680BC704780B400AF01
:1010740000BFBD4680BC704780B400AF00BFBD4612
:1010840080BC704780B400AF00BFBD4680BC7047D1
:1010940080B400AF00BFBD4680BC704780B400AFD1
:1010A40000BFBD4680BC704780B400AF00BFBD46E2
:1010B40080BC704780B400AF00BFBD4680BC7047A1
:1010C40080B400AF00BFBD4680BC704780B400AFA1
:1010D40000BFBD4680BC704780B400AF00BFBD46B2
:1010E40080BC704780B400AF00BFBD4680BC704771
:1010F40080B400AF00BFBD4680BC704780B400AF71
:1011040000BFBD4680BC704780B400AF00BFBD4681
:1011140080BC704780B400AF00BFBD4680BC704740
:1011240080B400AF00BFBD4680BC704780B400AF40
:1011340000BFBD4680BC704780B400AF00BFBD4651
:1011440080BC704780B400AF00BFBD4680BC704710
:1011540080B400AF00BFBD4680BC704780B400AF10
:1011640000BFBD4680BC704780B400AF00BFBD4621
:1011740080BC704780B400AF00BFBD4680BC7047E0
:1011840080B400AF00BFBD4680BC704780B400AFE0
:1011940000BFBD4680BC704780B400AF00BFBD46F1
:1011A40080BC704780B400AF00BFBD4680BC7047B0
:1011B40080B400AF00BFBD4680BC704780B400AFB0
:1011C40000BFBD4680BC704780B400AF00BFBD46C1
:1011D40080BC704780B400AF00BFBD4680BC704780
:1011E40080B400AF00BFBD4680BC704780B400AF80
:1011F40000BFBD4680BC704780B400AF00BFBD4691
:1012040080BC704780B400AF00BFBD4680BC70474F
:1012140080B400AF00BFBD4680BC704780B400AF4F
:1012240000BFBD4680BC704780B400AF00BFBD4660
:1012340080BC704780B400AF00BFBD4680BC70471F
:1012440080B400AF00BFBD4680BC704780B400AF1F
:1012540000BFBD4680BC704780B400AF00BFBD4630
:1012640080BC704780B400AF00BFBD4680BC7047EF
:1012740080B400AF00BFBD4680BC704780B400AFEF
:1012840000BFBD4680BC704780B400AF00BFBD4600
:1012940080BC704780B400AF00BFBD4680BC7047BF
:1012A40080B400AF00BFBD4680BC704780B400AFBF
:1012B40000BFBD4680BC704780B400AF00BFBD46D0
:1012C40080BC704780B400AF00BFBD4680BC70478F
:1012D40080B400AF00BFBD4680BC704780B400AF8F
:1012E40000BFBD4680BC704780B400AF00BFBD46A0
:1012F40080BC704780B400AF00BFBD4680BC70475F
:1013040080B400AF00BFBD4680BC704780B400AF5E
:1013140000BFBD4680BC704780B400AF00BFBD466F
:1013240080BC704780B400AF00BFBD4680BC70472E
:041334000080012014
:0400000508000114DA
:00000001FF
